S00B0000536F732E73726563E4
S11300000C942A000C9447000C9447000C9447006D
S11300100C9447000C9447000C9447000C94470040
S11300200C9447000C9447000C9447000C94DC0398
S11300300C9447000C9447000C9447000C94470020
S11300400C949B020C9447000C9447000C944700BA
S11300500C94470011241FBECFE5D8E0DEBFCDBF0E
S113006010E0A0E6B0E0E0E2FAE002C005900D92F4
S1130070A638B107D9F720E0A6E8B0E001C01D9288
S1130080A43FB207E1F70E9439020C940E050C94C8
S11300900000CF93DF93EC0168E081E00E940A0244
S11300A0BE01769567957695679580E090E00E940D
S11300B018028BE790E00E94F401DF91CF9108953C
S11300C0CF93DF93EC010E94B40186E00E946602A4
S11300D089E490E00E9491028EE790E00E94F4018E
S11300E0D0938700C0938600DF91CF9108958091CB
S11300F0860090918700009711F00E94770208957E
S11301008091D1008130A9F080E690E00E94CA027B
S113011063E870E080E00E9405038FEC90E00E94A9
S1130120000381E08093D1001092D0008093CF002F
S1130130089582E00895CF92DF92EF92FF92FC013E
S11301409091D100913009F049C08091CE00853062
S113015008F046C0468157814115510509F442C053
S1130160309709F441C08081282F30E0D901AA0FCB
S1130170BB1FAA0FBB1FAA0FBB1FAA55BF4F91815C
S113018011969C931197C280D380E480F5801296D7
S1130190CD92DD92ED92FC9215978C9317965C9319
S11301A04E931697F901EE0FFF1FDF01A20FB31F45
S11301B0AA0FBB1FA857BF4F12961D921D921D92E6
S11301C01C92159711961C921197FD0180838091C2
S11301D0CE008F5F8093CE0085E007C087E005C026
S11301E084E003C086E001C086E0FF90EF90DF90DA
S11301F0CF9008959091D100992389F1853088F5A5
S113020090E0FC01EE0FFF1FEE0FFF1FEE0FFF1F2C
S1130210EA55FF4F118212821382148215821082D2
S113022017821682FC01EE0FFF1FDF01A80FB91F12
S1130230AA0FBB1FA857BF4F12961D921D921D9265
S11302401C92159723E011962C931197FD011082AF
S11302508091CE0081508093CE0088E0089587E09D
S1130260089589E00895DF92EF92FF920F931F9310
S1130270CF93DF938091D100882309F440C09091FB
S1130280D0008091CF009817D1F3C6EAD0E008E8F7
S113029010E0D12C2E813F812115310521F1F80187
S11302A082819381A481B5814A815B816C817D8146
S11302B084179507A607B70770F0F9010995F801A7
S11302C01282138214821582898181110CC08D2DB2
S11302D00E94FA0008C00196A11DB11DF801828395
S11302E09383A483B583D39428960A5F1F4FF5E0C4
S11302F0DF12D0CF8091CF008093D000C0CFDF91A8
S1130300CF911F910F91FF90EF90DF900895D998AE
S1130310DA98DB9AEFECF7E03197F1F700C00000D0
S11303209BB39F70282F207F922B9BBBDB98EFEC15
S1130330F7E03197F1F700C00000DB9AEFECF7E04B
S11303403197F1F700C000002BB32F70F0E18F9FBD
S1130350C0011124822B8BBBDB988FEC97E00197B3
S1130360F1F700C0000008958AB3806F8ABBD19A68
S1130370D29AD39A82E00E94870188E20E94870180
S11303808EE00E94870181E00E9487010895D99A36
S1130390DA98DB9AEFE9FFE03197F1F700C000004B
S11303A09BB39F70282F207F922B9BBBDB98EFE998
S11303B0FFE03197F1F700C00000DB9AEFE9FFE0BE
S11303C03197F1F700C000002BB32F70F0E18F9F3D
S11303D0C0011124822B8BBBDB988FE99FE001972E
S11303E0F1F700C0000008950F931F93CF93FC0111
S11303F08081882359F08F01C0E00E94C701CF5F3C
S1130400F801EC0FF11D80818111F7CFCF911F917D
S11304100F910895813019F0823021F005C090E8E1
S1130420960F02C090EC960F892F0E9487010895C1
S1130430CF93DF93CDB7DEB7C055D1090FB6F8948B
S1130440DEBF0FBECDBFDC01CB014AE0BE016F5F52
S11304507F4F0E94E404CE0101960E94F401C05B28
S1130460DF4F0FB6F894DEBF0FBECDBFDF91CF9143
S11304700895CF93DF93CDB7DEB72A970FB6F894DC
S1130480DEBF0FBECDBF83E089831A82CE01019601
S11304900E9460000E94800088E0E3E7F0E0DE0153
S11304A0139601900D928A95E1F7CE0103960E946E
S11304B09B000E94330180E090E02A960FB6F894E6
S11304C0DEBF0FBECDBFDF91CF9108959091D400D0
S11304D0913059F096B1986896B996B1892B86B93E
S11304E0789481E08093D400089582E00895FC011B
S11304F09091D400913089F4369911C097B18181DB
S1130500892B87B927B1908130E4939FC0011124CE
S1130510822B87B9369A81E0089584E0089584E0B7
S11305200895009731F09093D3008093D20081E036
S1130530089583E008951F920F920FB60F9211242D
S11305402F933F934F935F936F937F938F939F93D7
S1130550AF93BF93EF93FF938091D2009091D30018
S1130560892B39F0E091D200F091D30084B195B198
S11305700995FF91EF91BF91AF919F918F917F91D9
S11305806F915F914F913F912F910F900FBE0F90FC
S11305901F901895DC0120E030E0F901E451FF4F91
S11305A020832F5F3F4F28303105B9F78C91282FD6
S11305B030E097E0899FF0011124EB52FF4F8083D4
S11305C011968D919C9112979283818315968D91AA
S11305D09C9116979683858314968C9114978483A3
S11305E013968C918383F901EE0FFF1FE359FF4F9C
S11305F00190F081E02D8081887F8360808308955D
S11306009093EB008093EA0008952F923F924F92CB
S11306105F926F927F928F929F92AF92BF92CF928E
S1130620DF92EF92FF920F931F93CF93DF9300D04B
S113063000D0CDB7DEB7282F30E03C832B83AB014D
S1130640A12C0F2EF2E1BF2EF02D0F2EFAE7CF2EA4
S1130650F02DD12CE12CF12C00E010E0242F352FCB
S113066040E050E060E070E080E090E00E941D0413
S11306708B809C80880C991C880C991C880C991C74
S1130680F401AB81BC81EA1BFB0BDF01AB52BF4F12
S1130690BA83A98311960D911C911297A8EEB3E029
S11306A00A9FF0010B9FF00D1A9FF00D11241F01FA
S11306B0AE2EB32CC12C00E010E00E947804122F5F
S11306C0A32FF42FE52F622F7A2F8F2F9E2FE981EE
S11306D0FA81458156819A0140E050E02617370798
S11306E048075907E0F4EB81FC81EE0FFF1FE9593D
S11306F0FF4F0190F081E02D1082EB81FC81EE0F21
S1130700FF1FEE0FFF1FEE0FFF1FAB81BC81EA1B23
S1130710FB0BEB52FF4FE481E13099F51CC0EB81F8
S1130720FC81EE0FFF1FE959FF4F0190F081E02D8E
S11307301083EB81FC81EE0FFF1FEE0FFF1FEE0F06
S1130740FF1F2B813C81E21BF30BEB52FF4F848193
S11307508130B9F406C00E94FB032115310519F458
S113076014C021E030E040E050E008B600FEFDCFC8
S113077088B7816088BF4F5F5F4F42175307A8F364
S113078004C0789489B7816089BF0F900F900F904F
S11307900F90DF91CF911F910F91FF90EF90DF9019
S11307A0CF90BF90AF909F908F907F906F905F900D
S11307B04F903F902F9008951F920F920FB60F9273
S11307C011248F93EF93FF93E091EA00F091EB00F3
S11307D0309749F080818F5F8083E0916700F091CA
S11307E0680083E88083FF91EF918F910F900FBE93
S11307F00F901F901895A1E21A2EAA1BBB1BFD0196
S11308000DC0AA1FBB1FEE1FFF1FA217B307E407EB
S1130810F50720F0A21BB30BE40BF50B661F771F43
S1130820881F991F1A9469F7609570958095909523
S11308309B01AC01BD01CF010895DF93CF931F93BA
S11308400F939A9DF02D219FF00D8B9DF00D8A9DA5
S1130850E02DF10D039FF00D029FE00DF11D4E9D63
S1130860E00DF11D5E9DF00D4F9DF00D7F936F9394
S1130870BF92AF925F934F93D5010E94D5048B0131
S1130880AC01D7010E94D504EB01E80FF91FD60192
S11308900E946D042F913F91D6010E94D504C60F8A
S11308A0D71FE81FF91FAF91BF910E946D042F91CC
S11308B03F910E94D504C60FD71FE81FF91FD60128
S11308C00E94D504E60FF71F9801BE01CF01112441
S11308D00F911F91CF91DF9108950E94D504460F87
S11308E0571FC81FD91F08F431960895689401C092
S11308F0E8948F929F92CF93DF930E948404DF91B8
S1130900CF919F908F90089588249924F401E40155
S1130910B0E49F93AA279A158B049C04ED05FE0569
S1130920CF05D007A10798F4AD2FDC2FCF2FFE2FD2
S1130930E92D982C892E982F872F762F652F542FE9
S1130940432F322F2227B85031F7BF9127C01B2ED7
S1130950BF91BB27220F331F441F551F661F771FEC
S1130960881F991F881C991CEE1FFF1FCC1FDD1FB9
S1130970AA1FBB1F8A149B04EC05FD05CE05DF05E9
S1130980A007B10748F08A189B08EC09FD09CE09B5
S1130990DF09A00BB10B21601A94E1F62EF4940147
S11309A0AF01BE01CD01000C0895A29FB001B39F19
S11309B0C001A39F700D811D1124911DB29F700D64
S11309C0811D1124911D0895BB27FB015527AA27DA
S11309D0880F991FAA1FA41710F0A41B83955051C8
S11309E0B9F7A05DAA3308F0A95DA193009779F740
S11309F0B111B1931192CB010C94FE04DC01FC0102
S1130A00672F71917723E1F7329704C07C916D933E
S1130A1070836291AE17BF07C8F30895F894FFCFAF
S1130A200040000100000152004C00440053004EFD
S1130A300045000001E803000077002043005465EE
S1090A406D70203D200052
S9030000FC
